:1000000014C1000040C100003EC100003CC100001E
:100010003AC1000038C1000036C1000034C1000000
:1000200032C1000030C100002EC100002CC1000010
:100030002AC1000028C1000026C1000024C1000020
:1000400022C1000020C100001EC100001CC1000030
:100050001AC1000018C1000016C10000F3C300005F
:1000600012C10000C6C300009BC300000CC1000009
:100070000AC1000008C1000006C1000004C1000060
:1000800002C1000000C10000FEC00000FCC0000072
:100090005EC3000033C30000F6C00000F4C00000DF
:1000A000F2C00000F0C00000EEC00000ECC0000094
:1000B000EAC00000E8C00000E6C00000E4C00000A4
:1000C000E2C00000E0C00000DEC00000DCC00000B4
:1000D000DAC00000D8C00000D6C00000D4C00000C4
:1000E000D2C00000F602F902E802EC02F20230038C
:1000F000FD02010307030B030F03150319031D037F
:100100003003230327032B030000200023002600D5
:1001100029002C002F00320000010000030106011D
:10012000090100000A0B02090C0D0E080703040167
:1001300000000000000000000000000000000000BF
:10014000000000000000000000000000000012118C
:10015000100000000000000000000000000000008F
:100160000000000000000000000022002500280020
:100170002B002E00310034000201000005010801AF
:100180000B0100002100240027002A002D00300070
:10019000330001010000040107010A0105050505FE
:1001A000070508080808020202020A0A08080404EF
:1001B000040401010101010101010303030303031D
:1001C0000303040707070C0C0C0C0C0C0C0C0202AC
:1001D000020206060606060606060B0B0B0B0B0BA9
:1001E0000B0B010210202008081020401020408036
:1001F00002010201080402010102040810204080EB
:100200008040201008040201800402018040201078
:1002100008040201080402010102040810204080C1
:1002200001020408102040806C0411241FBECFEF8F
:10023000D1E2DEBFCDBF00E00CBF12E0A0E0B2E033
:10024000EEEBFDE000E00BBF02C007900D92A4347E
:10025000B107D9F723E0A4E4B2E001C01D92A03AAF
:10026000B207E1F711E0C5E1D1E000E005C0219758
:100270000109802FFE0195D5C431D10780E0080720
:10028000B1F77DD39AC5BCCEFC01A089B18982E0CB
:100290008C93A485B5851C92A685B78580E18C9347
:1002A000108EA489B58986E08C93A289B3898C913C
:1002B00080618C93A289B3898C9188608C93A28988
:1002C000B3898C9180688C930288F389E02D8081BA
:1002D0008F7D8083089590E0FC01EE51FE4F2491C4
:1002E000FC01E456FE4F8491882399F090E0880F3A
:1002F000991FFC01EE57FE4FA591B491FC01E859FE
:10030000FE4F859194918FB7F894EC91E22BEC938A
:100310008FBF0895CF92DF92EF92FF920F931F93BA
:10032000CF93DF936C017A018B01C0E0D0E0CE1552
:10033000DF0589F0D8016D918D01D601ED91FC9119
:100340000190F081E02DC6011995892B11F47E01F1
:1003500002C02196ECCFC701DF91CF911F910F9181
:10036000FF90EF90DF90CF900895FC01A089B189B4
:100370008C91A689B78982FD0FC09C91818D8F5F7A
:100380008F73228D821749F0218DDF01A20FB11DDD
:100390005D969C93818F08958C910895089580E0D7
:1003A00090E00895FC01538D448D252F30E0842F7B
:1003B00090E0821B930B541710F0CF96089501978D
:1003C0000895FC01918D828D981761F0828DDF0177
:1003D000A80FB11D5D968C91928D9F5F9F73928F38
:1003E00090E008958FEF9FEF0895FC01918D828D2D
:1003F000981731F0828DE80FF11D858D90E00895FA
:100400008FEF9FEF0895FC01918D228D892F90E051
:10041000805C9F4F821B91098F739927089586E610
:1004200092E0F1DF21E0892B09F420E0822F08958A
:1004300083E093E0E8DF21E0892B09F420E0822FBC
:100440000895FC01848DDF01A80FB11DA35ABF4F91
:100450002C91848D90E001968F739927848FA689C3
:10046000B7892C93A089B1898C9180648C93938DEA
:10047000848D981306C00288F389E02D80818F7DDA
:1004800080830895EF92FF920F931F93CF93DF9392
:10049000EC0181E0888F9B8D8C8D981305C0E889D5
:1004A000F989808185FD23C0F62E0B8D10E00F5F4A
:1004B0001F4F0F731127E02E8C8DE8120BC00FB663
:1004C00007FCFACFE889F989808185FFF5CFCE0155
:1004D000B8DFF2CF8B8DFE01E80FF11DE35AFF4F1D
:1004E000F0820B8FEA89FB898081806207C0EE89E8
:1004F000FF896083E889F98980818064808381E055
:1005000090E0DF91CF911F910F91FF90EF900895B0
:10051000CF93DF93EC01888D8823C1F0EA89FB89B2
:10052000808185FD05C0A889B9898C9186FD0EC0A2
:100530000FB607FCF5CF808185FFF2CFA889B98976
:100540008C9185FFEDCFCE017CDFE8CFDF91CF919D
:10055000089580E090E0892B19F06ADF811120C0B6
:1005600080E090E0892B19F05ADF81111CC080E0F7
:1005700090E0892B41F080E090E0892B21F00E94EF
:100580000000811113C080E090E0892BA1F080E091
:1005900090E0892B81F00E94000081110AC008952B
:1005A0000E940000DDCF0E940000E1CF0E94000009
:1005B000EACF0C940000089590E0FC013197E231FD
:1005C000F10508F04DC08827EE58FF4F8F4FE9C363
:1005D000809180008F7703C0809180008F7D809311
:1005E0008000089580918000877FF9CF84B58F7750
:1005F00002C084B58F7D84BD08958091B0008F774F
:1006000003C08091B0008F7D8093B00008958091E9
:1006100090008F7707C0809190008F7D03C08091FC
:100620009000877F8093900008958091A0008F773D
:1006300007C08091A0008F7D03C08091A000877FBC
:100640008093A0000895809120018F7707C080914A
:1006500020018F7D03C080912001877F809320013E
:1006600008951F93CF93DF93282F30E0F901EE5DBB
:10067000FE4F8491F901EE51FE4FD491F901E456F9
:10068000FE4FC491CC23C1F0162F811195DFEC2FC2
:10069000F0E0EE0FFF1FE859FE4FA591B4918FB720
:1006A000F894111105C09C91ED2FE095E92302C04B
:1006B000EC91ED2BEC938FBFDF91CF911F910895BB
:1006C0002FB7F8946091490270914A0280914B02D1
:1006D00090914C022FBF0895009761F0FC010190AA
:1006E0000020E9F73197AF01481B590BBC0183E0AB
:1006F00093E010CE80E090E008955BD31F920F92BC
:100700000FB60F9211240BB60F922F933F934F9376
:100710005F936F937F938F939F93AF93BF93EF9369
:10072000FF9386E692E08DDEFF91EF91BF91AF914E
:100730009F918F917F916F915F914F913F912F91F9
:100740000F900BBE0F900FBE0F901F9018951F9229
:100750000F920FB60F9211240BB60F922F933F9367
:100760004F935F936F937F938F939F93AF93BF93B9
:10077000EF93FF9386E692E0F8DDFF91EF91BF9152
:10078000AF919F918F917F916F915F914F913F9129
:100790002F910F900BBE0F900FBE0F901F901895CA
:1007A0001F920F920FB60F9211240BB60F922F9338
:1007B0003F934F935F936F937F938F939F93AF93E9
:1007C000BF93EF93FF9383E093E03BDEFF91EF91C4
:1007D000BF91AF919F918F917F916F915F914F9159
:1007E0003F912F910F900BBE0F900FBE0F901F9057
:1007F00018951F920F920FB60F9211240BB60F92FD
:100800002F933F934F935F936F937F938F939F9318
:10081000AF93BF93EF93FF9383E093E0A6DDFF9147
:10082000EF91BF91AF919F918F917F916F915F9168
:100830004F913F912F910F900BBE0F900FBE0F90D5
:100840001F9018951F920F920FB60F9211242F939D
:100850003F938F939F93AF93BF9380914902909161
:100860004A02A0914B02B0914C023091480223E021
:10087000230F2D3720F40196A11DB11D05C026E8D8
:10088000230F0296A11DB11D2093480280934902B7
:1008900090934A02A0934B02B0934C028091440281
:1008A00090914502A0914602B09147020196A11D88
:1008B000B11D8093440290934502A0934602B093E9
:1008C0004702BF91AF919F918F913F912F910F90D0
:1008D0000FBE0F901F901895E6E6F2E01382128289
:1008E00048EE53E060E070E044835583668377838D
:1008F0008CE192E0918380832DEC30E03587248772
:100900002CEC30E03787268728EC30E0318B208BC9
:1009100029EC30E0338B228B2AEC30E0358B248BB2
:100920002EEC30E0378B268B118E128E138E148EA8
:10093000E3E0F3E013821282448355836683778376
:100940009183808385EC90E09587848784EC90E0A8
:100950009787868780EC90E0918B808B81EC90E08C
:10096000938B828B82EC90E0958B848B86EC90E06D
:10097000978B868B118E128E138E148E0895789419
:1009800084B5826084BD84B5816084BD85B5826094
:1009900085BD85B5816085BD80916E008160809345
:1009A0006E001092810080918100826080938100AE
:1009B00080918100816080938100809180008160BE
:1009C000809380008091B10084608093B100809119
:1009D000B00081608093B00080919100826080932C
:1009E00091008091910081608093910080919000AE
:1009F0008160809390008091A10082608093A1002B
:100A00008091A10081608093A1008091A00081600D
:100A10008093A000809121018260809321018091C8
:100A20002101816080932101809120018160809368
:100A3000200180917A00846080937A0080917A000E
:100A4000826080937A0080917A00816080937A003E
:100A500080917A00806880937A001092C10083E0D0
:100A600093E012DC86E692E00FDC8DE034DC86E178
:100A700032DC1092620287E12EDC1092630288E180
:100A80002ADC1092640289E126DC1092650218DEED
:100A900060935E0270935F028093600290936102A4
:100AA0000FDE60935A0270935B0280935C02909316
:100AB0005D0288EE93E0A0E0B0E080935602909350
:100AC0005702A0935802B093590210925502109207
:100AD00054028AE292E000DE8BE092E0FDDD83E3E7
:100AE00092E0FADD85E392E0F7DD80E092E0F4DD6C
:100AF0008BE392E0F1DD83E093E00ADD222423948E
:100B0000312C39E1832E912CA12CB12C4AE0C42E3A
:100B1000D12C58EE452E53E0552E612C712C02E657
:100B200012E0C0E1D2E07801F70181917F018823D2
:100B300011F061E001C060E0888193DD2296F2E06F
:100B4000C831DF0789F786E692E05DDCEC01892B8E
:100B500009F479C086E692E034DC209152023091AB
:100B60005302909151022115310521F025303105B4
:100B700079F055C01092530210925202823519F743
:100B8000309253022092520220E320935102DBCF95
:100B90008913F0CF309353022093520291DD60937A
:100BA0005E0270935F0280936002909361028EE315
:100BB00092E092DD9DE4E92E92E0F92EC2E6D2E0C9
:100BC000F70161917F01613319F4F1E0F88301C00D
:100BD0001882E0910303F09104030190F081E02D6D
:100BE00083E093E01995219622E0C636D20741F7BB
:100BF0008BE392E071DD83E093E08ADC8092560221
:100C000090925702A0925802B0925902D092550287
:100C1000C0925402109253021092520294CF40EDAF
:100C2000480F423008F0A6CFF901E45BFD4F808306
:100C30009053890F809351022F5F3F4F309353029F
:100C40002093520280CF3CDD20915E0230915F0202
:100C50004091600250916102621773078407950703
:100C600058F42095309540955095DC01CB01820FCA
:100C7000931FA41FB51F06C0DC01CB01821B930B81
:100C8000A40BB50B88389341A105B105E0F018DD40
:100C900060935E0270935F028093600290936102A2
:100CA00080E492E019DDF80111928F0182E492E074
:100CB00013DDF2E006361F07B1F78BE392E00CDD9F
:100CC00083E093E025DCFCDC00915A0210915B028A
:100CD00020915C0230915D026017710782079307D3
:100CE00058F40095109520953095DC01CB01800FCC
:100CF000911FA21FB31F06C0DC01CB01801B910B0B
:100D0000A20BB30B0091560210915702209158028A
:100D10003091590280179107A207B30708F43FC02A
:100D2000EFE2F1E08491EFEEF1E01491E9EAF1E015
:100D30000491002391F081113FDCE02FF0E0EE0FF1
:100D4000FF1FE85FFE4FA591B491EC911E2391E047
:100D500080E009F490E0C92FD82FBE01F1E06F27A1
:100D60008DE07FDCADDC60935A0270935B02809370
:100D70005C0290935D02809154029091550200971D
:100D800031F00197909355028093540208C040922D
:100D90005602509257026092580270925902D9DB63
:100DA000BECEEE0FFF1F881F8BBF0790F691E02D80
:0E0DB000199481E090E0F89400C0F894FFCF11
:100DBE00323031382D30372D303400312E30300076
:100DCE0016001700180019000000000042028A01E8
:100DDE00D20188020302E101F50156657273696F53
:100DEE006E3A002000446174653A000A0D0052000C
:040DFE00570030006A
:00000001FF
